{
  "contractName": "SocialGoodToken",
  "abi": [
    {
      "inputs": [
        {
          "internalType": "uint256",
          "name": "total",
          "type": "uint256"
        },
        {
          "internalType": "string",
          "name": "_name",
          "type": "string"
        },
        {
          "internalType": "string",
          "name": "_symbol",
          "type": "string"
        }
      ],
      "stateMutability": "nonpayable",
      "type": "constructor"
    },
    {
      "anonymous": false,
      "inputs": [
        {
          "indexed": true,
          "internalType": "address",
          "name": "tokenOwner",
          "type": "address"
        },
        {
          "indexed": true,
          "internalType": "address",
          "name": "spender",
          "type": "address"
        },
        {
          "indexed": false,
          "internalType": "uint256",
          "name": "tokens",
          "type": "uint256"
        }
      ],
      "name": "Approval",
      "type": "event"
    },
    {
      "anonymous": false,
      "inputs": [
        {
          "indexed": false,
          "internalType": "address",
          "name": "buyer",
          "type": "address"
        },
        {
          "indexed": false,
          "internalType": "uint256",
          "name": "amountOfETH",
          "type": "uint256"
        },
        {
          "indexed": false,
          "internalType": "uint256",
          "name": "amountOfTokens",
          "type": "uint256"
        }
      ],
      "name": "Buy",
      "type": "event"
    },
    {
      "anonymous": false,
      "inputs": [
        {
          "indexed": false,
          "internalType": "address",
          "name": "participantAddress",
          "type": "address"
        },
        {
          "indexed": false,
          "internalType": "uint256",
          "name": "amountOfTokens",
          "type": "uint256"
        }
      ],
      "name": "Encash",
      "type": "event"
    },
    {
      "anonymous": false,
      "inputs": [
        {
          "indexed": false,
          "internalType": "address",
          "name": "seller",
          "type": "address"
        },
        {
          "indexed": false,
          "internalType": "uint256",
          "name": "amountOfTokens",
          "type": "uint256"
        },
        {
          "indexed": false,
          "internalType": "uint256",
          "name": "amountOfETH",
          "type": "uint256"
        }
      ],
      "name": "Sell",
      "type": "event"
    },
    {
      "anonymous": false,
      "inputs": [
        {
          "indexed": true,
          "internalType": "address",
          "name": "from",
          "type": "address"
        },
        {
          "indexed": true,
          "internalType": "address",
          "name": "to",
          "type": "address"
        },
        {
          "indexed": false,
          "internalType": "uint256",
          "name": "tokens",
          "type": "uint256"
        }
      ],
      "name": "Transfer",
      "type": "event"
    },
    {
      "inputs": [],
      "name": "charity",
      "outputs": [
        {
          "internalType": "address",
          "name": "",
          "type": "address"
        }
      ],
      "stateMutability": "view",
      "type": "function",
      "constant": true
    },
    {
      "inputs": [],
      "name": "decimals",
      "outputs": [
        {
          "internalType": "uint8",
          "name": "",
          "type": "uint8"
        }
      ],
      "stateMutability": "view",
      "type": "function",
      "constant": true
    },
    {
      "inputs": [],
      "name": "ethTokenConversionRate",
      "outputs": [
        {
          "internalType": "uint256",
          "name": "",
          "type": "uint256"
        }
      ],
      "stateMutability": "view",
      "type": "function",
      "constant": true
    },
    {
      "inputs": [],
      "name": "name",
      "outputs": [
        {
          "internalType": "string",
          "name": "",
          "type": "string"
        }
      ],
      "stateMutability": "view",
      "type": "function",
      "constant": true
    },
    {
      "inputs": [],
      "name": "symbol",
      "outputs": [
        {
          "internalType": "string",
          "name": "",
          "type": "string"
        }
      ],
      "stateMutability": "view",
      "type": "function",
      "constant": true
    },
    {
      "inputs": [
        {
          "internalType": "address",
          "name": "",
          "type": "address"
        }
      ],
      "name": "verifierMap",
      "outputs": [
        {
          "internalType": "bool",
          "name": "",
          "type": "bool"
        }
      ],
      "stateMutability": "view",
      "type": "function",
      "constant": true
    },
    {
      "inputs": [],
      "name": "totalSupply",
      "outputs": [
        {
          "internalType": "uint256",
          "name": "",
          "type": "uint256"
        }
      ],
      "stateMutability": "view",
      "type": "function",
      "constant": true
    },
    {
      "inputs": [],
      "name": "currentSupply",
      "outputs": [
        {
          "internalType": "uint256",
          "name": "",
          "type": "uint256"
        }
      ],
      "stateMutability": "view",
      "type": "function",
      "constant": true
    },
    {
      "inputs": [
        {
          "internalType": "address",
          "name": "tokenOwner",
          "type": "address"
        }
      ],
      "name": "balanceOf",
      "outputs": [
        {
          "internalType": "uint256",
          "name": "",
          "type": "uint256"
        }
      ],
      "stateMutability": "view",
      "type": "function",
      "constant": true
    },
    {
      "inputs": [],
      "name": "checkOwnBalance",
      "outputs": [
        {
          "internalType": "uint256",
          "name": "",
          "type": "uint256"
        }
      ],
      "stateMutability": "view",
      "type": "function",
      "constant": true
    },
    {
      "inputs": [
        {
          "internalType": "address",
          "name": "receiver",
          "type": "address"
        },
        {
          "internalType": "uint256",
          "name": "numTokens",
          "type": "uint256"
        }
      ],
      "name": "transfer",
      "outputs": [
        {
          "internalType": "bool",
          "name": "",
          "type": "bool"
        }
      ],
      "stateMutability": "nonpayable",
      "type": "function"
    },
    {
      "inputs": [
        {
          "internalType": "address",
          "name": "delegate",
          "type": "address"
        },
        {
          "internalType": "uint256",
          "name": "numTokens",
          "type": "uint256"
        }
      ],
      "name": "approve",
      "outputs": [
        {
          "internalType": "bool",
          "name": "",
          "type": "bool"
        }
      ],
      "stateMutability": "nonpayable",
      "type": "function"
    },
    {
      "inputs": [
        {
          "internalType": "address",
          "name": "owner",
          "type": "address"
        },
        {
          "internalType": "address",
          "name": "delegate",
          "type": "address"
        }
      ],
      "name": "allowance",
      "outputs": [
        {
          "internalType": "uint256",
          "name": "",
          "type": "uint256"
        }
      ],
      "stateMutability": "view",
      "type": "function",
      "constant": true
    },
    {
      "inputs": [
        {
          "internalType": "address",
          "name": "owner",
          "type": "address"
        },
        {
          "internalType": "address",
          "name": "buyer",
          "type": "address"
        },
        {
          "internalType": "uint256",
          "name": "numTokens",
          "type": "uint256"
        }
      ],
      "name": "transferFrom",
      "outputs": [
        {
          "internalType": "bool",
          "name": "",
          "type": "bool"
        }
      ],
      "stateMutability": "nonpayable",
      "type": "function"
    },
    {
      "inputs": [
        {
          "internalType": "uint256",
          "name": "_amount",
          "type": "uint256"
        }
      ],
      "name": "buyTokens",
      "outputs": [],
      "stateMutability": "payable",
      "type": "function",
      "payable": true
    },
    {
      "inputs": [
        {
          "internalType": "uint256",
          "name": "_amount",
          "type": "uint256"
        }
      ],
      "name": "sellTokens",
      "outputs": [],
      "stateMutability": "nonpayable",
      "type": "function"
    },
    {
      "inputs": [],
      "name": "windfall",
      "outputs": [],
      "stateMutability": "nonpayable",
      "type": "function"
    },
    {
      "inputs": [
        {
          "internalType": "string",
          "name": "_hash",
          "type": "string"
        },
        {
          "internalType": "string",
          "name": "_timestamp",
          "type": "string"
        }
      ],
      "name": "recordSocialGood",
      "outputs": [],
      "stateMutability": "nonpayable",
      "type": "function"
    },
    {
      "inputs": [
        {
          "internalType": "address",
          "name": "pAdd",
          "type": "address"
        }
      ],
      "name": "viewPendingSocialGood",
      "outputs": [
        {
          "internalType": "string[]",
          "name": "",
          "type": "string[]"
        }
      ],
      "stateMutability": "view",
      "type": "function",
      "constant": true
    },
    {
      "inputs": [
        {
          "internalType": "address",
          "name": "verifierAddress",
          "type": "address"
        }
      ],
      "name": "addNewVerifier",
      "outputs": [],
      "stateMutability": "nonpayable",
      "type": "function"
    },
    {
      "inputs": [
        {
          "internalType": "string[]",
          "name": "valid",
          "type": "string[]"
        },
        {
          "internalType": "address",
          "name": "pAdd",
          "type": "address"
        }
      ],
      "name": "verifyPendingSocialGood",
      "outputs": [],
      "stateMutability": "nonpayable",
      "type": "function"
    },
    {
      "inputs": [
        {
          "internalType": "uint256",
          "name": "amount",
          "type": "uint256"
        }
      ],
      "name": "encash",
      "outputs": [],
      "stateMutability": "nonpayable",
      "type": "function"
    }
  ],
  "bytecode": "0x60806040526040518060400160405280600f81526020017f536f6369616c476f6f64546f6b656e00000000000000000000000000000000008152506000908051906020019062000051929190620001a7565b506040518060400160405280600381526020017f5347540000000000000000000000000000000000000000000000000000000000815250600190805190602001906200009f929190620001a7565b5060006002556103e8600355348015620000b857600080fd5b5060405162003b4f38038062003b4f8339818101604052810190620000de9190620002e0565b826002819055508160009080519060200190620000fd929190620001a7565b50806001908051906020019062000116929190620001a7565b50600254600560003373ffffffffffffffffffffffffffffffffffffffff1673ffffffffffffffffffffffffffffffffffffffff1681526020019081526020016000208190555033600460006101000a81548173ffffffffffffffffffffffffffffffffffffffff021916908373ffffffffffffffffffffffffffffffffffffffff160217905550505050620004fc565b828054620001b59062000407565b90600052602060002090601f016020900481019282620001d9576000855562000225565b82601f10620001f457805160ff191683800117855562000225565b8280016001018555821562000225579182015b828111156200022457825182559160200191906001019062000207565b5b50905062000234919062000238565b5090565b5b808211156200025357600081600090555060010162000239565b5090565b60006200026e620002688462000391565b62000368565b9050828152602081018484840111156200028757600080fd5b62000294848285620003d1565b509392505050565b600082601f830112620002ae57600080fd5b8151620002c084826020860162000257565b91505092915050565b600081519050620002da81620004e2565b92915050565b600080600060608486031215620002f657600080fd5b60006200030686828701620002c9565b935050602084015167ffffffffffffffff8111156200032457600080fd5b62000332868287016200029c565b925050604084015167ffffffffffffffff8111156200035057600080fd5b6200035e868287016200029c565b9150509250925092565b60006200037462000387565b90506200038282826200043d565b919050565b6000604051905090565b600067ffffffffffffffff821115620003af57620003ae620004a2565b5b620003ba82620004d1565b9050602081019050919050565b6000819050919050565b60005b83811015620003f1578082015181840152602081019050620003d4565b8381111562000401576000848401525b50505050565b600060028204905060018216806200042057607f821691505b6020821081141562000437576200043662000473565b5b50919050565b6200044882620004d1565b810181811067ffffffffffffffff821117156200046a5762000469620004a2565b5b80604052505050565b7f4e487b7100000000000000000000000000000000000000000000000000000000600052602260045260246000fd5b7f4e487b7100000000000000000000000000000000000000000000000000000000600052604160045260246000fd5b6000601f19601f8301169050919050565b620004ed81620003c7565b8114620004f957600080fd5b50565b613643806200050c6000396000f3fe6080604052600436106101355760003560e01c806370a08231116100ab578063b1a2e7911161006f578063b1a2e7911461042f578063b65221fa14610458578063bce390691461046f578063dd62ed3e14610498578063f336f3a4146104d5578063f68747221461050057610135565b806370a0823114610334578063771282f614610371578063934aa0231461039c57806395d89b41146103c7578063a9059cbb146103f257610135565b80631db2f238116100fd5780631db2f23814610221578063220e9d301461024a57806323b872dd14610287578063313ce567146102c45780633610724e146102ef5780636c11bcd31461030b57610135565b806306fdde031461013a578063095ea7b31461016557806309c6f85f146101a25780630a6a42d9146101cd57806318160ddd146101f6575b600080fd5b34801561014657600080fd5b5061014f61053d565b60405161015c9190612ce8565b60405180910390f35b34801561017157600080fd5b5061018c600480360381019061018791906127d3565b6105cb565b6040516101999190612ccd565b60405180910390f35b3480156101ae57600080fd5b506101b76106bd565b6040516101c49190612e6a565b60405180910390f35b3480156101d957600080fd5b506101f460048036038101906101ef91906128cf565b6106c3565b005b34801561020257600080fd5b5061020b610815565b6040516102189190612e6a565b60405180910390f35b34801561022d57600080fd5b5061024860048036038101906102439190612863565b61081f565b005b34801561025657600080fd5b50610271600480360381019061026c919061271f565b610aaf565b60405161027e9190612ccd565b60405180910390f35b34801561029357600080fd5b506102ae60048036038101906102a99190612784565b610acf565b6040516102bb9190612ccd565b60405180910390f35b3480156102d057600080fd5b506102d9610e4f565b6040516102e69190612e85565b60405180910390f35b610309600480360381019061030491906128cf565b610e54565b005b34801561031757600080fd5b50610332600480360381019061032d91906128cf565b611071565b005b34801561034057600080fd5b5061035b6004803603810190610356919061271f565b611321565b6040516103689190612e6a565b60405180910390f35b34801561037d57600080fd5b5061038661136a565b6040516103939190612e6a565b60405180910390f35b3480156103a857600080fd5b506103b16113d3565b6040516103be9190612c30565b60405180910390f35b3480156103d357600080fd5b506103dc6113f9565b6040516103e99190612ce8565b60405180910390f35b3480156103fe57600080fd5b50610419600480360381019061041491906127d3565b611487565b6040516104269190612ccd565b60405180910390f35b34801561043b57600080fd5b506104566004803603810190610451919061271f565b61166e565b005b34801561046457600080fd5b5061046d611759565b005b34801561047b57600080fd5b506104966004803603810190610491919061280f565b6118e1565b005b3480156104a457600080fd5b506104bf60048036038101906104ba9190612748565b612111565b6040516104cc9190612e6a565b60405180910390f35b3480156104e157600080fd5b506104ea612198565b6040516104f79190612e6a565b60405180910390f35b34801561050c57600080fd5b506105276004803603810190610522919061271f565b6121df565b6040516105349190612cab565b60405180910390f35b6000805461054a9061314a565b80601f01602080910402602001604051908101604052809291908181526020018280546105769061314a565b80156105c35780601f10610598576101008083540402835291602001916105c3565b820191906000526020600020905b8154815290600101906020018083116105a657829003601f168201915b505050505081565b600081600660003373ffffffffffffffffffffffffffffffffffffffff1673ffffffffffffffffffffffffffffffffffffffff16815260200190815260200160002060008573ffffffffffffffffffffffffffffffffffffffff1673ffffffffffffffffffffffffffffffffffffffff168152602001908152602001600020819055508273ffffffffffffffffffffffffffffffffffffffff163373ffffffffffffffffffffffffffffffffffffffff167f8c5be1e5ebec7d5bd14f71427d1e84f3dd0314c0f7b2291e5b200ac8c7c3b925846040516106ab9190612e6a565b60405180910390a36001905092915050565b60035481565b80600560003373ffffffffffffffffffffffffffffffffffffffff1673ffffffffffffffffffffffffffffffffffffffff1681526020019081526020016000205411610744576040517f08c379a000000000000000000000000000000000000000000000000000000000815260040161073b90612daa565b60405180910390fd5b61079681600560003373ffffffffffffffffffffffffffffffffffffffff1673ffffffffffffffffffffffffffffffffffffffff1681526020019081526020016000205461246490919063ffffffff16565b600560003373ffffffffffffffffffffffffffffffffffffffff1673ffffffffffffffffffffffffffffffffffffffff168152602001908152602001600020819055507f3ff8eedb36bca0c426bcf65b879a4d9658127a30536577decbf11bfd63f64705338260405161080a929190612c4b565b60405180910390a150565b6000600254905090565b60001515600960003373ffffffffffffffffffffffffffffffffffffffff1673ffffffffffffffffffffffffffffffffffffffff16815260200190815260200160002060009054906101000a900460ff1615151415610934576001600960003373ffffffffffffffffffffffffffffffffffffffff1673ffffffffffffffffffffffffffffffffffffffff16815260200190815260200160002060006101000a81548160ff021916908315150217905550600a339080600181540180825580915050600190039060005260206000200160009091909190916101000a81548173ffffffffffffffffffffffffffffffffffffffff021916908373ffffffffffffffffffffffffffffffffffffffff1602179055505b600060405180606001604052803373ffffffffffffffffffffffffffffffffffffffff168152602001848152602001838152509050600760003373ffffffffffffffffffffffffffffffffffffffff1673ffffffffffffffffffffffffffffffffffffffff16815260200190815260200160002081908060018154018082558091505060019003906000526020600020906003020160009091909190915060008201518160000160006101000a81548173ffffffffffffffffffffffffffffffffffffffff021916908373ffffffffffffffffffffffffffffffffffffffff1602179055506020820151816001019080519060200190610a35929190612503565b506040820151816002019080519060200190610a52929190612503565b505050600860003373ffffffffffffffffffffffffffffffffffffffff1673ffffffffffffffffffffffffffffffffffffffff1681526020019081526020016000206000815480929190610aa5906131ad565b9190505550505050565b600b6020528060005260406000206000915054906101000a900460ff1681565b6000600560008573ffffffffffffffffffffffffffffffffffffffff1673ffffffffffffffffffffffffffffffffffffffff16815260200190815260200160002054821115610b1d57600080fd5b600660008573ffffffffffffffffffffffffffffffffffffffff1673ffffffffffffffffffffffffffffffffffffffff16815260200190815260200160002060003373ffffffffffffffffffffffffffffffffffffffff1673ffffffffffffffffffffffffffffffffffffffff16815260200190815260200160002054821115610ba657600080fd5b610bf882600560008773ffffffffffffffffffffffffffffffffffffffff1673ffffffffffffffffffffffffffffffffffffffff1681526020019081526020016000205461246490919063ffffffff16565b600560008673ffffffffffffffffffffffffffffffffffffffff1673ffffffffffffffffffffffffffffffffffffffff16815260200190815260200160002081905550610cca82600660008773ffffffffffffffffffffffffffffffffffffffff1673ffffffffffffffffffffffffffffffffffffffff16815260200190815260200160002060003373ffffffffffffffffffffffffffffffffffffffff1673ffffffffffffffffffffffffffffffffffffffff1681526020019081526020016000205461246490919063ffffffff16565b600660008673ffffffffffffffffffffffffffffffffffffffff1673ffffffffffffffffffffffffffffffffffffffff16815260200190815260200160002060003373ffffffffffffffffffffffffffffffffffffffff1673ffffffffffffffffffffffffffffffffffffffff16815260200190815260200160002081905550610d9c82600560008673ffffffffffffffffffffffffffffffffffffffff1673ffffffffffffffffffffffffffffffffffffffff168152602001908152602001600020546124b190919063ffffffff16565b600560008573ffffffffffffffffffffffffffffffffffffffff1673ffffffffffffffffffffffffffffffffffffffff168152602001908152602001600020819055508273ffffffffffffffffffffffffffffffffffffffff168473ffffffffffffffffffffffffffffffffffffffff167fddf252ad1be2c89b69c2b068fc378daa952ba7f163c4a11628f55a4df523b3ef84604051610e3c9190612e6a565b60405180910390a3600190509392505050565b601281565b8060035434610e639190613025565b1015610ea4576040517f08c379a0000000000000000000000000000000000000000000000000000000008152600401610e9b90612dea565b60405180910390fd5b610f188160056000600460009054906101000a900473ffffffffffffffffffffffffffffffffffffffff1673ffffffffffffffffffffffffffffffffffffffff1673ffffffffffffffffffffffffffffffffffffffff1681526020019081526020016000205461246490919063ffffffff16565b60056000600460009054906101000a900473ffffffffffffffffffffffffffffffffffffffff1673ffffffffffffffffffffffffffffffffffffffff1673ffffffffffffffffffffffffffffffffffffffff16815260200190815260200160002081905550610fcf81600560003373ffffffffffffffffffffffffffffffffffffffff1673ffffffffffffffffffffffffffffffffffffffff168152602001908152602001600020546124b190919063ffffffff16565b600560003373ffffffffffffffffffffffffffffffffffffffff1673ffffffffffffffffffffffffffffffffffffffff16815260200190815260200160002081905550606460456003546110239190613025565b61102d9190612ff4565b6003819055507f1cbc5ab135991bd2b6a4b034a04aa2aa086dac1371cb9b16b8b5e2ed6b036bed33348360405161106693929190612c74565b60405180910390a150565b80600560003373ffffffffffffffffffffffffffffffffffffffff1673ffffffffffffffffffffffffffffffffffffffff1681526020019081526020016000205410156110f3576040517f08c379a00000000000000000000000000000000000000000000000000000000081526004016110ea90612d2a565b60405180910390fd5b61114581600560003373ffffffffffffffffffffffffffffffffffffffff1673ffffffffffffffffffffffffffffffffffffffff1681526020019081526020016000205461246490919063ffffffff16565b600560003373ffffffffffffffffffffffffffffffffffffffff1673ffffffffffffffffffffffffffffffffffffffff168152602001908152602001600020819055506111fc8160056000600460009054906101000a900473ffffffffffffffffffffffffffffffffffffffff1673ffffffffffffffffffffffffffffffffffffffff1673ffffffffffffffffffffffffffffffffffffffff168152602001908152602001600020546124b190919063ffffffff16565b60056000600460009054906101000a900473ffffffffffffffffffffffffffffffffffffffff1673ffffffffffffffffffffffffffffffffffffffff1673ffffffffffffffffffffffffffffffffffffffff168152602001908152602001600020819055503373ffffffffffffffffffffffffffffffffffffffff166108fc600354836112899190613025565b9081150290604051600060405180830381858888f193505050501580156112b4573d6000803e3d6000fd5b507fed7a144fad14804d5c249145e3e0e2b63a9eb455b76aee5bc92d711e9bba3e4a3382600354846112e69190613025565b6040516112f593929190612c74565b60405180910390a16064604560035461130e9190612ff4565b6113189190613025565b60038190555050565b6000600560008373ffffffffffffffffffffffffffffffffffffffff1673ffffffffffffffffffffffffffffffffffffffff168152602001908152602001600020549050919050565b600060056000600460009054906101000a900473ffffffffffffffffffffffffffffffffffffffff1673ffffffffffffffffffffffffffffffffffffffff1673ffffffffffffffffffffffffffffffffffffffff16815260200190815260200160002054905090565b600460009054906101000a900473ffffffffffffffffffffffffffffffffffffffff1681565b600180546114069061314a565b80601f01602080910402602001604051908101604052809291908181526020018280546114329061314a565b801561147f5780601f106114545761010080835404028352916020019161147f565b820191906000526020600020905b81548152906001019060200180831161146257829003601f168201915b505050505081565b6000600560003373ffffffffffffffffffffffffffffffffffffffff1673ffffffffffffffffffffffffffffffffffffffff168152602001908152602001600020548211156114d557600080fd5b61152782600560003373ffffffffffffffffffffffffffffffffffffffff1673ffffffffffffffffffffffffffffffffffffffff1681526020019081526020016000205461246490919063ffffffff16565b600560003373ffffffffffffffffffffffffffffffffffffffff1673ffffffffffffffffffffffffffffffffffffffff168152602001908152602001600020819055506115bc82600560008673ffffffffffffffffffffffffffffffffffffffff1673ffffffffffffffffffffffffffffffffffffffff168152602001908152602001600020546124b190919063ffffffff16565b600560008573ffffffffffffffffffffffffffffffffffffffff1673ffffffffffffffffffffffffffffffffffffffff168152602001908152602001600020819055508273ffffffffffffffffffffffffffffffffffffffff163373ffffffffffffffffffffffffffffffffffffffff167fddf252ad1be2c89b69c2b068fc378daa952ba7f163c4a11628f55a4df523b3ef8460405161165c9190612e6a565b60405180910390a36001905092915050565b600460009054906101000a900473ffffffffffffffffffffffffffffffffffffffff1673ffffffffffffffffffffffffffffffffffffffff163373ffffffffffffffffffffffffffffffffffffffff16146116fe576040517f08c379a00000000000000000000000000000000000000000000000000000000081526004016116f590612e2a565b60405180910390fd5b6001600b60008373ffffffffffffffffffffffffffffffffffffffff1673ffffffffffffffffffffffffffffffffffffffff16815260200190815260200160002060006101000a81548160ff02191690831515021790555050565b600460009054906101000a900473ffffffffffffffffffffffffffffffffffffffff1673ffffffffffffffffffffffffffffffffffffffff163373ffffffffffffffffffffffffffffffffffffffff16146117e9576040517f08c379a00000000000000000000000000000000000000000000000000000000081526004016117e090612dca565b60405180910390fd5b600047905060008111611831576040517f08c379a000000000000000000000000000000000000000000000000000000000815260040161182890612d6a565b60405180910390fd5b60003373ffffffffffffffffffffffffffffffffffffffff164760405161185790612c1b565b60006040518083038185875af1925050503d8060008114611894576040519150601f19603f3d011682016040523d82523d6000602084013e611899565b606091505b50509050806118dd576040517f08c379a00000000000000000000000000000000000000000000000000000000081526004016118d490612d8a565b60405180910390fd5b5050565b60011515600b60003373ffffffffffffffffffffffffffffffffffffffff1673ffffffffffffffffffffffffffffffffffffffff16815260200190815260200160002060009054906101000a900460ff16151514611974576040517f08c379a000000000000000000000000000000000000000000000000000000000815260040161196b90612e4a565b60405180910390fd5b60011515600960008373ffffffffffffffffffffffffffffffffffffffff1673ffffffffffffffffffffffffffffffffffffffff16815260200190815260200160002060009054906101000a900460ff16151514611a07576040517f08c379a00000000000000000000000000000000000000000000000000000000081526004016119fe90612d0a565b60405180910390fd5b600760008273ffffffffffffffffffffffffffffffffffffffff1673ffffffffffffffffffffffffffffffffffffffff16815260200190815260200160002080549050825114611a8c576040517f08c379a0000000000000000000000000000000000000000000000000000000008152600401611a8390612e0a565b60405180910390fd5b6000600760008373ffffffffffffffffffffffffffffffffffffffff1673ffffffffffffffffffffffffffffffffffffffff168152602001908152602001600020805480602002602001604051908101604052809291908181526020016000905b82821015611c9957838290600052602060002090600302016040518060600160405290816000820160009054906101000a900473ffffffffffffffffffffffffffffffffffffffff1673ffffffffffffffffffffffffffffffffffffffff1673ffffffffffffffffffffffffffffffffffffffff168152602001600182018054611b769061314a565b80601f0160208091040260200160405190810160405280929190818152602001828054611ba29061314a565b8015611bef5780601f10611bc457610100808354040283529160200191611bef565b820191906000526020600020905b815481529060010190602001808311611bd257829003601f168201915b50505050508152602001600282018054611c089061314a565b80601f0160208091040260200160405190810160405280929190818152602001828054611c349061314a565b8015611c815780601f10611c5657610100808354040283529160200191611c81565b820191906000526020600020905b815481529060010190602001808311611c6457829003601f168201915b50505050508152505081526020019060010190611aed565b50505050905060008060005b8551811015611dbb57838181518110611ce7577f4e487b7100000000000000000000000000000000000000000000000000000000600052603260045260246000fd5b602002602001015160200151604051602001611d039190612c04565b60405160208183030381529060405280519060200120868281518110611d52577f4e487b7100000000000000000000000000000000000000000000000000000000600052603260045260246000fd5b6020026020010151604051602001611d6a9190612c04565b604051602081830303815290604052805190602001201415611d99578280611d91906131ad565b935050611da8565b8180611da4906131ad565b9250505b8080611db3906131ad565b915050611ca5565b5060008167ffffffffffffffff811115611dfe577f4e487b7100000000000000000000000000000000000000000000000000000000600052604160045260246000fd5b604051908082528060200260200182016040528015611e3757816020015b611e24612589565b815260200190600190039081611e1c5790505b5090506000805b8751811015611fc557858181518110611e80577f4e487b7100000000000000000000000000000000000000000000000000000000600052603260045260246000fd5b602002602001015160200151604051602001611e9c9190612c04565b60405160208183030381529060405280519060200120888281518110611eeb577f4e487b7100000000000000000000000000000000000000000000000000000000600052603260045260246000fd5b6020026020010151604051602001611f039190612c04565b6040516020818303038152906040528051906020012014611fb257858181518110611f57577f4e487b7100000000000000000000000000000000000000000000000000000000600052603260045260246000fd5b6020026020010151838381518110611f98577f4e487b7100000000000000000000000000000000000000000000000000000000600052603260045260246000fd5b60200260200101819052508180611fae906131ad565b9250505b8080611fbd906131ad565b915050611e3e565b5061201884600560008973ffffffffffffffffffffffffffffffffffffffff1673ffffffffffffffffffffffffffffffffffffffff168152602001908152602001600020546124b190919063ffffffff16565b600560008873ffffffffffffffffffffffffffffffffffffffff1673ffffffffffffffffffffffffffffffffffffffff168152602001908152602001600020819055506120c5600560648661206d9190612ff4565b6120779190613025565b600560003373ffffffffffffffffffffffffffffffffffffffff1673ffffffffffffffffffffffffffffffffffffffff168152602001908152602001600020546124b190919063ffffffff16565b600560003373ffffffffffffffffffffffffffffffffffffffff1673ffffffffffffffffffffffffffffffffffffffff1681526020019081526020016000208190555050505050505050565b6000600660008473ffffffffffffffffffffffffffffffffffffffff1673ffffffffffffffffffffffffffffffffffffffff16815260200190815260200160002060008373ffffffffffffffffffffffffffffffffffffffff1673ffffffffffffffffffffffffffffffffffffffff16815260200190815260200160002054905092915050565b6000600560003373ffffffffffffffffffffffffffffffffffffffff1673ffffffffffffffffffffffffffffffffffffffff16815260200190815260200160002054905090565b60606000600860008473ffffffffffffffffffffffffffffffffffffffff1673ffffffffffffffffffffffffffffffffffffffff16815260200190815260200160002054905060008111612268576040517f08c379a000000000000000000000000000000000000000000000000000000000815260040161225f90612d4a565b60405180910390fd5b60008167ffffffffffffffff8111156122aa577f4e487b7100000000000000000000000000000000000000000000000000000000600052604160045260246000fd5b6040519080825280602002602001820160405280156122dd57816020015b60608152602001906001900390816122c85790505b50905060005b82811015612459576000600760008773ffffffffffffffffffffffffffffffffffffffff1673ffffffffffffffffffffffffffffffffffffffff1681526020019081526020016000208281548110612364577f4e487b7100000000000000000000000000000000000000000000000000000000600052603260045260246000fd5b906000526020600020906003020190508060020180546123839061314a565b80601f01602080910402602001604051908101604052809291908181526020018280546123af9061314a565b80156123fc5780601f106123d1576101008083540402835291602001916123fc565b820191906000526020600020905b8154815290600101906020018083116123df57829003601f168201915b505050505083838151811061243a577f4e487b7100000000000000000000000000000000000000000000000000000000600052603260045260246000fd5b6020026020010181905250508080612451906131ad565b9150506122e3565b508092505050919050565b60008282111561249d577f4e487b7100000000000000000000000000000000000000000000000000000000600052600160045260246000fd5b81836124a9919061307f565b905092915050565b60008082846124c09190612f9e565b9050838110156124f9577f4e487b7100000000000000000000000000000000000000000000000000000000600052600160045260246000fd5b8091505092915050565b82805461250f9061314a565b90600052602060002090601f0160209004810192826125315760008555612578565b82601f1061254a57805160ff1916838001178555612578565b82800160010185558215612578579182015b8281111561257757825182559160200191906001019061255c565b5b50905061258591906125c0565b5090565b6040518060600160405280600073ffffffffffffffffffffffffffffffffffffffff16815260200160608152602001606081525090565b5b808211156125d95760008160009055506001016125c1565b5090565b60006125f06125eb84612ec5565b612ea0565b9050808382526020820190508285602086028201111561260f57600080fd5b60005b8581101561265957813567ffffffffffffffff81111561263157600080fd5b80860161263e89826126e0565b85526020850194506020840193505050600181019050612612565b5050509392505050565b600061267661267184612ef1565b612ea0565b90508281526020810184848401111561268e57600080fd5b612699848285613108565b509392505050565b6000813590506126b0816135df565b92915050565b600082601f8301126126c757600080fd5b81356126d78482602086016125dd565b91505092915050565b600082601f8301126126f157600080fd5b8135612701848260208601612663565b91505092915050565b600081359050612719816135f6565b92915050565b60006020828403121561273157600080fd5b600061273f848285016126a1565b91505092915050565b6000806040838503121561275b57600080fd5b6000612769858286016126a1565b925050602061277a858286016126a1565b9150509250929050565b60008060006060848603121561279957600080fd5b60006127a7868287016126a1565b93505060206127b8868287016126a1565b92505060406127c98682870161270a565b9150509250925092565b600080604083850312156127e657600080fd5b60006127f4858286016126a1565b92505060206128058582860161270a565b9150509250929050565b6000806040838503121561282257600080fd5b600083013567ffffffffffffffff81111561283c57600080fd5b612848858286016126b6565b9250506020612859858286016126a1565b9150509250929050565b6000806040838503121561287657600080fd5b600083013567ffffffffffffffff81111561289057600080fd5b61289c858286016126e0565b925050602083013567ffffffffffffffff8111156128b957600080fd5b6128c5858286016126e0565b9150509250929050565b6000602082840312156128e157600080fd5b60006128ef8482850161270a565b91505092915050565b6000612904838361299f565b905092915050565b612915816130b3565b82525050565b600061292682612f32565b6129308185612f55565b93508360208202850161294285612f22565b8060005b8581101561297e578484038952815161295f85826128f8565b945061296a83612f48565b925060208a01995050600181019050612946565b50829750879550505050505092915050565b612999816130c5565b82525050565b60006129aa82612f3d565b6129b48185612f71565b93506129c4818560208601613117565b6129cd816132b2565b840191505092915050565b60006129e382612f3d565b6129ed8185612f82565b93506129fd818560208601613117565b612a06816132b2565b840191505092915050565b6000612a1c82612f3d565b612a268185612f93565b9350612a36818560208601613117565b80840191505092915050565b6000612a4f603383612f82565b9150612a5a826132c3565b604082019050919050565b6000612a72601b83612f82565b9150612a7d82613312565b602082019050919050565b6000612a95602d83612f82565b9150612aa08261333b565b604082019050919050565b6000612ab8601c83612f82565b9150612ac38261338a565b602082019050919050565b6000612adb602c83612f82565b9150612ae6826133b3565b604082019050919050565b6000612afe602583612f82565b9150612b0982613402565b604082019050919050565b6000612b21602683612f82565b9150612b2c82613451565b604082019050919050565b6000612b44601a83612f82565b9150612b4f826134a0565b602082019050919050565b6000612b67603b83612f82565b9150612b72826134c9565b604082019050919050565b6000612b8a602a83612f82565b9150612b9582613518565b604082019050919050565b6000612bad604483612f82565b9150612bb882613567565b606082019050919050565b6000612bd0600083612f66565b9150612bdb826135dc565b600082019050919050565b612bef816130f1565b82525050565b612bfe816130fb565b82525050565b6000612c108284612a11565b915081905092915050565b6000612c2682612bc3565b9150819050919050565b6000602082019050612c45600083018461290c565b92915050565b6000604082019050612c60600083018561290c565b612c6d6020830184612be6565b9392505050565b6000606082019050612c89600083018661290c565b612c966020830185612be6565b612ca36040830184612be6565b949350505050565b60006020820190508181036000830152612cc5818461291b565b905092915050565b6000602082019050612ce26000830184612990565b92915050565b60006020820190508181036000830152612d0281846129d8565b905092915050565b60006020820190508181036000830152612d2381612a42565b9050919050565b60006020820190508181036000830152612d4381612a65565b9050919050565b60006020820190508181036000830152612d6381612a88565b9050919050565b60006020820190508181036000830152612d8381612aab565b9050919050565b60006020820190508181036000830152612da381612ace565b9050919050565b60006020820190508181036000830152612dc381612af1565b9050919050565b60006020820190508181036000830152612de381612b14565b9050919050565b60006020820190508181036000830152612e0381612b37565b9050919050565b60006020820190508181036000830152612e2381612b5a565b9050919050565b60006020820190508181036000830152612e4381612b7d565b9050919050565b60006020820190508181036000830152612e6381612ba0565b9050919050565b6000602082019050612e7f6000830184612be6565b92915050565b6000602082019050612e9a6000830184612bf5565b92915050565b6000612eaa612ebb565b9050612eb6828261317c565b919050565b6000604051905090565b600067ffffffffffffffff821115612ee057612edf613283565b5b602082029050602081019050919050565b600067ffffffffffffffff821115612f0c57612f0b613283565b5b612f15826132b2565b9050602081019050919050565b6000819050602082019050919050565b600081519050919050565b600081519050919050565b6000602082019050919050565b600082825260208201905092915050565b600081905092915050565b600082825260208201905092915050565b600082825260208201905092915050565b600081905092915050565b6000612fa9826130f1565b9150612fb4836130f1565b9250827fffffffffffffffffffffffffffffffffffffffffffffffffffffffffffffffff03821115612fe957612fe86131f6565b5b828201905092915050565b6000612fff826130f1565b915061300a836130f1565b92508261301a57613019613225565b5b828204905092915050565b6000613030826130f1565b915061303b836130f1565b9250817fffffffffffffffffffffffffffffffffffffffffffffffffffffffffffffffff0483118215151615613074576130736131f6565b5b828202905092915050565b600061308a826130f1565b9150613095836130f1565b9250828210156130a8576130a76131f6565b5b828203905092915050565b60006130be826130d1565b9050919050565b60008115159050919050565b600073ffffffffffffffffffffffffffffffffffffffff82169050919050565b6000819050919050565b600060ff82169050919050565b82818337600083830152505050565b60005b8381101561313557808201518184015260208101905061311a565b83811115613144576000848401525b50505050565b6000600282049050600182168061316257607f821691505b6020821081141561317657613175613254565b5b50919050565b613185826132b2565b810181811067ffffffffffffffff821117156131a4576131a3613283565b5b80604052505050565b60006131b8826130f1565b91507fffffffffffffffffffffffffffffffffffffffffffffffffffffffffffffffff8214156131eb576131ea6131f6565b5b600182019050919050565b7f4e487b7100000000000000000000000000000000000000000000000000000000600052601160045260246000fd5b7f4e487b7100000000000000000000000000000000000000000000000000000000600052601260045260246000fd5b7f4e487b7100000000000000000000000000000000000000000000000000000000600052602260045260246000fd5b7f4e487b7100000000000000000000000000000000000000000000000000000000600052604160045260246000fd5b6000601f19601f8301169050919050565b7f5061727469636970616e7420646f6573206e6f74206861766520616e7920736f60008201527f6369616c20676f6f6420746f2076657269667900000000000000000000000000602082015250565b7f596f7520646f6e74206861766520656e6f75676820746f6b656e730000000000600082015250565b7f54686973207061727469636970616e7420686173206e6f20736f6369616c206760008201527f6f6f6420746f2076657269667900000000000000000000000000000000000000602082015250565b7f4368617269747920646f6573206e6f74206861766520656e6f75676800000000600082015250565b7f4661696c656420746f2073656e64204554482062616c616e6365206261636b2060008201527f746f20746865206f776e65720000000000000000000000000000000000000000602082015250565b7f596f7520646f6e74206861766520656e6f75676820746f6b656e7320746f206560008201527f6e63617368000000000000000000000000000000000000000000000000000000602082015250565b7f54686973206973206f6e6c7920666f7220746865206368617269747920746f2060008201527f6163636573730000000000000000000000000000000000000000000000000000602082015250565b7f5370656e6420736f6d6520746f2067657420736f6d652c20796f000000000000600082015250565b7f54686520696e707574206172726179206973206e6f74207468652073616d652060008201527f6c656e67746820617320746865207061727469636970616e7427730000000000602082015250565b7f546869732066756e6374696f6e206973206f6e6c7920666f7220746865206f7760008201527f6e657220746f2075736500000000000000000000000000000000000000000000602082015250565b7f596f7520617265206e6f7420612076616c69642076657269666965722e20506c60008201527f6561736520636f6e7461637420757320746f206265636f6d65206f6e6520746f60208201527f6461792100000000000000000000000000000000000000000000000000000000604082015250565b50565b6135e8816130b3565b81146135f357600080fd5b50565b6135ff816130f1565b811461360a57600080fd5b5056fea26469706673582212207e1e5c342b6ec43f4139e9181f41e374e0b4867d378c4e753414e4d3bb1ebdd764736f6c63430008040033",
  "immutableReferences": {},
  "source": "pragma solidity >=0.5.16;\n// SPDX-License-Identifier: MIT\n\n// parties involed\n// 1. SocialGoodCompany (i.e. us lmao)\n// 2. Participant (e.g. manufacturing companies in carbon offset, schools whose students and the target)\n// 3. Individual investors\n// 4. Government (for encashing purposes (only for participants) --> converting tokens to monetary value)\n// 5. Verifier\n\nlibrary SafeMath { \n    function add(uint256 x, uint256 y) internal pure returns (uint256) {\n      uint256 z = x + y;\n      assert(z >= x);\n      return z;\n    }\n    function sub(uint256 x, uint256 y) internal pure returns (uint256) {\n      assert(y <= x);\n      return x - y;\n    }\n}\n\ncontract SocialGoodToken {\n    using SafeMath for uint256;\n    event Approval(address indexed tokenOwner, address indexed spender, uint tokens);\n    event Transfer(address indexed from, address indexed to, uint tokens);\n    event Buy(address buyer, uint256 amountOfETH, uint256 amountOfTokens);\n    event Sell(address seller, uint256 amountOfTokens, uint256 amountOfETH);\n    event Encash(address participantAddress, uint256 amountOfTokens);\n    \n    uint8 public constant decimals = 18;  \n    string public name = \"SocialGoodToken\";\n    string public symbol = \"SGT\";\n    uint256 totalSupply_ = 0;\n    uint256 public ethTokenConversionRate = 1000;\n    address public charity;\n\n    mapping(address => uint256) balances;\n    mapping(address => mapping (address => uint256)) delegates;\n\n    constructor(uint256 total, string memory _name, string memory _symbol) {  \n    \ttotalSupply_ = total;\n    \tname = _name;\n    \tsymbol = _symbol;\n    \tbalances[msg.sender] = totalSupply_;\n    \tcharity = msg.sender;\n    }\n\n    function totalSupply() public view returns (uint256) {\n\t    return totalSupply_;\n    }\n    \n    function currentSupply() public view returns (uint256) {\n\t    return balances[charity];\n    }\n    \n    function balanceOf(address tokenOwner) public view returns (uint256) {\n        return balances[tokenOwner];\n    }\n\n    function checkOwnBalance() public view returns (uint256) {\n        return balances[msg.sender];\n    }\n    \n    // basic transfer function \n    function transfer(address receiver, uint numTokens) public returns (bool) {\n        require(numTokens <= balances[msg.sender]);\n        balances[msg.sender] = balances[msg.sender].sub(numTokens);\n        balances[receiver] = balances[receiver].add(numTokens);\n        emit Transfer(msg.sender, receiver, numTokens);\n        return true;\n    }\n    \n    // delegate transfer ability to us or charity\n    function approve(address delegate, uint numTokens) public returns (bool) {\n        delegates[msg.sender][delegate] = numTokens;\n        emit Approval(msg.sender, delegate, numTokens);\n        return true;\n    }\n    \n    // sets the amount allowed to be transferred \n    function allowance(address owner, address delegate) public view returns (uint) {\n        return delegates[owner][delegate];\n    }\n    \n    // transfer function for the delegate to execute\n    function transferFrom(address owner, address buyer, uint numTokens) public returns (bool) {\n        require(numTokens <= balances[owner]);    \n        require(numTokens <= delegates[owner][msg.sender]);\n    \n        balances[owner] = balances[owner].sub(numTokens);\n        delegates[owner][msg.sender] = delegates[owner][msg.sender].sub(numTokens);\n        balances[buyer] = balances[buyer].add(numTokens);\n        emit Transfer(owner, buyer, numTokens);\n        return true;\n    }\n    \n    // buy tokens from us/charity\n    // Exchnage rate = 1 wei to 5 tokens\n    // buy: 50\n    // msg.value = 10 wei\n    // _amount = 50 tokens\n    function buyTokens(uint256 _amount) public payable {\n        require (msg.value * ethTokenConversionRate >= _amount, \"Spend some to get some, yo\");\n        balances[charity] = balances[charity].sub(_amount);\n        balances[msg.sender] = balances[msg.sender].add(_amount);\n        ethTokenConversionRate = ethTokenConversionRate * 69 / 100;\n        emit Buy(msg.sender, msg.value, _amount);\n    }\n    \n    // sell tokens back to us/charity\n    function sellTokens(uint _amount) public {\n        require(balances[msg.sender] >= _amount, \"You dont have enough tokens\");\n        balances[msg.sender] = balances[msg.sender].sub(_amount);\n        balances[charity] = balances[charity].add(_amount);\n        payable(msg.sender).transfer(_amount * ethTokenConversionRate);\n        emit Sell(msg.sender, _amount, _amount * ethTokenConversionRate);\n        ethTokenConversionRate = ethTokenConversionRate / 69 * 100;\n    }\n    \n    // cash out yo!\n    function windfall() public {\n        require(msg.sender == charity, \"This is only for the charity to access\");\n        uint256 charityBalance = address(this).balance;\n        require(charityBalance > 0, \"Charity does not have enough\");\n        (bool sent,) = msg.sender.call{value: address(this).balance}(\"\");\n        require(sent, \"Failed to send ETH balance back to the owner\");\n    }\n\n    // upload data from iot {hash: timestamp}\n    // verify data \n    // student come in --> generate 1 token\n    struct SocialGood {\n        address participant;\n        string hash;\n        string timestamp;\n    }\n    mapping(address => SocialGood[]) participantSocialGoodMap;\n    mapping(address => uint) participantSocialGoodSizes;\n    mapping(address => bool) recordedParticipantsExists;\n    address[] recordedParticipants;\n\n    function recordSocialGood(string memory _hash, string memory _timestamp) public {      \n        if (recordedParticipantsExists[msg.sender] == false) {\n            recordedParticipantsExists[msg.sender] = true;\n            recordedParticipants.push(msg.sender);\n        }\n        SocialGood memory sg = SocialGood({participant: msg.sender, hash:_hash, timestamp: _timestamp});\n        participantSocialGoodMap[msg.sender].push(sg);\n        participantSocialGoodSizes[msg.sender]++;\n    }\n\n    // returns timestamps for all the participants social good\n    // verifiers use the timestamp and gathers the hashes for the particular timestamp\n    function viewPendingSocialGood(address pAdd) public view returns (string[] memory) {\n        uint _size = participantSocialGoodSizes[pAdd];\n        require(_size > 0, \"This participant has no social good to verify\");\n        string[] memory res = new string[](_size);\n        for (uint i=0; i < _size; i++) {\n            SocialGood storage sg = participantSocialGoodMap[pAdd][i];\n            res[i] = sg.timestamp;\n        }\n        return res;\n    }\n\n    // Adds new verifiers \n    // users can sign up to become a verifier\n    mapping (address => bool) public verifierMap;\n    function addNewVerifier(address verifierAddress) public {\n        require(msg.sender == charity, \"This function is only for the owner to use\");\n        verifierMap[verifierAddress] = true;\n    }\n\n    // Verify\n    // takes in an array of hashes ordered by timestamp from previous function\n    // verifies hashes with participants hashes\n    // valid hashes awards one token to participant\n    // verifier gets a kickback\n    function verifyPendingSocialGood(string[] memory valid, address pAdd) public {\n        require(verifierMap[msg.sender] == true, \"You are not a valid verifier. Please contact us to become one today!\");\n        require(recordedParticipantsExists[pAdd] == true, \"Participant does not have any social good to verify\");\n        require(valid.length == participantSocialGoodMap[pAdd].length, \"The input array is not the same length as the participant's\");\n\n        SocialGood[] memory toBeVerified = participantSocialGoodMap[pAdd];\n        uint tokens = 0;\n        uint invalidCount = 0;\n        for (uint i=0; i < valid.length; i++) {\n            if (keccak256(abi.encodePacked(valid[i])) == keccak256(abi.encodePacked(toBeVerified[i].hash))) {\n                tokens++;\n            } else {\n                invalidCount++;\n            }\n        }\n        SocialGood[] memory invalid = new SocialGood[](invalidCount);\n        uint j = 0;\n        for (uint i=0; i < valid.length; i++) {\n            if (keccak256(abi.encodePacked(valid[i])) != keccak256(abi.encodePacked(toBeVerified[i].hash))) {\n                invalid[j] = toBeVerified[i];\n                j++;\n            }\n        }\n        balances[pAdd] = balances[pAdd].add(tokens);\n        balances[msg.sender] = balances[msg.sender].add(tokens / 100 * 5);\n    }\n\n    // encash tokens --> destroy tokens\n    // 1. buy token\n    // 2. sell token to government for subisidies\n    // 3. tokens that are sold gets destroyed\n    function encash(uint256 amount) public {\n        require(balances[msg.sender] > amount, \"You dont have enough tokens to encash\"); \n        balances[msg.sender] = balances[msg.sender].sub(amount);\n        emit Encash(msg.sender, amount);\n    }\n}\n\n",
  "sourcePath": "/Users/sherman/Github/SocialGoodToken/contracts/SocialGoodToken.sol",
  "compiler": {
    "name": "solc",
    "version": "0.8.4+commit.c7e474f2.Emscripten.clang"
  },
  "schemaVersion": "3.4.0",
  "updatedAt": "2021-11-06T15:50:58.960Z",
  "networkType": "ethereum",
  "devdoc": {
    "kind": "dev",
    "methods": {},
    "version": 1
  },
  "userdoc": {
    "kind": "user",
    "methods": {},
    "version": 1
  }
}